{"abi":[{"type":"constructor","inputs":[],"stateMutability":"nonpayable"},{"type":"function","name":"setShouldReturnTrue","inputs":[{"name":"_value","type":"bool","internalType":"bool"}],"outputs":[],"stateMutability":"nonpayable"},{"type":"function","name":"verify","inputs":[{"name":"","type":"bytes","internalType":"bytes"},{"name":"","type":"bytes32[]","internalType":"bytes32[]"}],"outputs":[{"name":"","type":"bool","internalType":"bool"}],"stateMutability":"view"}],"bytecode":{"object":"0x6080604052348015600e575f5ffd5b5060015f5f6101000a81548160ff02191690831515021790555061042e806100355f395ff3fe608060405234801561000f575f5ffd5b5060043610610034575f3560e01c8063ea50d0e414610038578063f95ed5dd14610068575b5f5ffd5b610052600480360381019061004d91906102fa565b610084565b60405161005f919061038a565b60405180910390f35b610082600480360381019061007d91906103cd565b61009b565b005b5f5f5f9054906101000a900460ff16905092915050565b805f5f6101000a81548160ff02191690831515021790555050565b5f604051905090565b5f5ffd5b5f5ffd5b5f5ffd5b5f5ffd5b5f601f19601f8301169050919050565b7f4e487b71000000000000000000000000000000000000000000000000000000005f52604160045260245ffd5b610115826100cf565b810181811067ffffffffffffffff82111715610134576101336100df565b5b80604052505050565b5f6101466100b6565b9050610152828261010c565b919050565b5f67ffffffffffffffff821115610171576101706100df565b5b61017a826100cf565b9050602081019050919050565b828183375f83830152505050565b5f6101a76101a284610157565b61013d565b9050828152602081018484840111156101c3576101c26100cb565b5b6101ce848285610187565b509392505050565b5f82601f8301126101ea576101e96100c7565b5b81356101fa848260208601610195565b91505092915050565b5f67ffffffffffffffff82111561021d5761021c6100df565b5b602082029050602081019050919050565b5f5ffd5b5f819050919050565b61024481610232565b811461024e575f5ffd5b50565b5f8135905061025f8161023b565b92915050565b5f61027761027284610203565b61013d565b9050808382526020820190506020840283018581111561029a5761029961022e565b5b835b818110156102c357806102af8882610251565b84526020840193505060208101905061029c565b5050509392505050565b5f82601f8301126102e1576102e06100c7565b5b81356102f1848260208601610265565b91505092915050565b5f5f604083850312156103105761030f6100bf565b5b5f83013567ffffffffffffffff81111561032d5761032c6100c3565b5b610339858286016101d6565b925050602083013567ffffffffffffffff81111561035a576103596100c3565b5b610366858286016102cd565b9150509250929050565b5f8115159050919050565b61038481610370565b82525050565b5f60208201905061039d5f83018461037b565b92915050565b6103ac81610370565b81146103b6575f5ffd5b50565b5f813590506103c7816103a3565b92915050565b5f602082840312156103e2576103e16100bf565b5b5f6103ef848285016103b9565b9150509291505056fea2646970667358221220c3d68812cb7c8995bf9c76764f63d7f0827954fec451cfd5eeb8658b450e9a3c64736f6c634300081e0033","linkReferences":{}},"methodIdentifiers":{"setShouldReturnTrue(bool)":"f95ed5dd","verify(bytes,bytes32[])":"ea50d0e4"},"id":39}