{"abi":[{"type":"constructor","inputs":[{"name":"_verifier","type":"address","internalType":"contract IVerifier"}],"stateMutability":"nonpayable"},{"type":"function","name":"balanceOf","inputs":[{"name":"account","type":"address","internalType":"address"},{"name":"id","type":"uint256","internalType":"uint256"}],"outputs":[{"name":"","type":"uint256","internalType":"uint256"}],"stateMutability":"view"},{"type":"function","name":"balanceOfBatch","inputs":[{"name":"accounts","type":"address[]","internalType":"address[]"},{"name":"ids","type":"uint256[]","internalType":"uint256[]"}],"outputs":[{"name":"","type":"uint256[]","internalType":"uint256[]"}],"stateMutability":"view"},{"type":"function","name":"isApprovedForAll","inputs":[{"name":"account","type":"address","internalType":"address"},{"name":"operator","type":"address","internalType":"address"}],"outputs":[{"name":"","type":"bool","internalType":"bool"}],"stateMutability":"view"},{"type":"function","name":"s_verifier","inputs":[],"outputs":[{"name":"","type":"address","internalType":"contract IVerifier"}],"stateMutability":"view"},{"type":"function","name":"safeBatchTransferFrom","inputs":[{"name":"from","type":"address","internalType":"address"},{"name":"to","type":"address","internalType":"address"},{"name":"ids","type":"uint256[]","internalType":"uint256[]"},{"name":"values","type":"uint256[]","internalType":"uint256[]"},{"name":"data","type":"bytes","internalType":"bytes"}],"outputs":[],"stateMutability":"nonpayable"},{"type":"function","name":"safeTransferFrom","inputs":[{"name":"from","type":"address","internalType":"address"},{"name":"to","type":"address","internalType":"address"},{"name":"id","type":"uint256","internalType":"uint256"},{"name":"value","type":"uint256","internalType":"uint256"},{"name":"data","type":"bytes","internalType":"bytes"}],"outputs":[],"stateMutability":"nonpayable"},{"type":"function","name":"setApprovalForAll","inputs":[{"name":"operator","type":"address","internalType":"address"},{"name":"approved","type":"bool","internalType":"bool"}],"outputs":[],"stateMutability":"nonpayable"},{"type":"function","name":"supportsInterface","inputs":[{"name":"interfaceId","type":"bytes4","internalType":"bytes4"}],"outputs":[{"name":"","type":"bool","internalType":"bool"}],"stateMutability":"view"},{"type":"function","name":"updateVerifier","inputs":[{"name":"_verifier","type":"address","internalType":"contract IVerifier"}],"outputs":[],"stateMutability":"nonpayable"},{"type":"function","name":"uri","inputs":[{"name":"","type":"uint256","internalType":"uint256"}],"outputs":[{"name":"","type":"string","internalType":"string"}],"stateMutability":"view"},{"type":"event","name":"ApprovalForAll","inputs":[{"name":"account","type":"address","indexed":true,"internalType":"address"},{"name":"operator","type":"address","indexed":true,"internalType":"address"},{"name":"approved","type":"bool","indexed":false,"internalType":"bool"}],"anonymous":false},{"type":"event","name":"Panagram_VerifierUpdated","inputs":[{"name":"verifier","type":"address","indexed":false,"internalType":"contract IVerifier"}],"anonymous":false},{"type":"event","name":"TransferBatch","inputs":[{"name":"operator","type":"address","indexed":true,"internalType":"address"},{"name":"from","type":"address","indexed":true,"internalType":"address"},{"name":"to","type":"address","indexed":true,"internalType":"address"},{"name":"ids","type":"uint256[]","indexed":false,"internalType":"uint256[]"},{"name":"values","type":"uint256[]","indexed":false,"internalType":"uint256[]"}],"anonymous":false},{"type":"event","name":"TransferSingle","inputs":[{"name":"operator","type":"address","indexed":true,"internalType":"address"},{"name":"from","type":"address","indexed":true,"internalType":"address"},{"name":"to","type":"address","indexed":true,"internalType":"address"},{"name":"id","type":"uint256","indexed":false,"internalType":"uint256"},{"name":"value","type":"uint256","indexed":false,"internalType":"uint256"}],"anonymous":false},{"type":"event","name":"URI","inputs":[{"name":"value","type":"string","indexed":false,"internalType":"string"},{"name":"id","type":"uint256","indexed":true,"internalType":"uint256"}],"anonymous":false},{"type":"error","name":"ERC1155InsufficientBalance","inputs":[{"name":"sender","type":"address","internalType":"address"},{"name":"balance","type":"uint256","internalType":"uint256"},{"name":"needed","type":"uint256","internalType":"uint256"},{"name":"tokenId","type":"uint256","internalType":"uint256"}]},{"type":"error","name":"ERC1155InvalidApprover","inputs":[{"name":"approver","type":"address","internalType":"address"}]},{"type":"error","name":"ERC1155InvalidArrayLength","inputs":[{"name":"idsLength","type":"uint256","internalType":"uint256"},{"name":"valuesLength","type":"uint256","internalType":"uint256"}]},{"type":"error","name":"ERC1155InvalidOperator","inputs":[{"name":"operator","type":"address","internalType":"address"}]},{"type":"error","name":"ERC1155InvalidReceiver","inputs":[{"name":"receiver","type":"address","internalType":"address"}]},{"type":"error","name":"ERC1155InvalidSender","inputs":[{"name":"sender","type":"address","internalType":"address"}]},{"type":"error","name":"ERC1155MissingApprovalForAll","inputs":[{"name":"operator","type":"address","internalType":"address"},{"name":"owner","type":"address","internalType":"address"}]},{"type":"error","name":"Panagram__InvalidVerifierAddress","inputs":[]}],"bytecode":{"object":"0x608060405234801561000f575f5ffd5b5060405161250738038061250783398181016040528101906100319190610122565b6040518060800160405280604c81526020016124bb604c9139610059816100a060201b60201c565b508060035f6101000a81548173ffffffffffffffffffffffffffffffffffffffff021916908373ffffffffffffffffffffffffffffffffffffffff16021790555050610459565b80600290816100af919061038a565b5050565b5f5ffd5b5f73ffffffffffffffffffffffffffffffffffffffff82169050919050565b5f6100e0826100b7565b9050919050565b5f6100f1826100d6565b9050919050565b610101816100e7565b811461010b575f5ffd5b50565b5f8151905061011c816100f8565b92915050565b5f60208284031215610137576101366100b3565b5b5f6101448482850161010e565b91505092915050565b5f81519050919050565b7f4e487b71000000000000000000000000000000000000000000000000000000005f52604160045260245ffd5b7f4e487b71000000000000000000000000000000000000000000000000000000005f52602260045260245ffd5b5f60028204905060018216806101c857607f821691505b6020821081036101db576101da610184565b5b50919050565b5f819050815f5260205f209050919050565b5f6020601f8301049050919050565b5f82821b905092915050565b5f6008830261023d7fffffffffffffffffffffffffffffffffffffffffffffffffffffffffffffffff82610202565b6102478683610202565b95508019841693508086168417925050509392505050565b5f819050919050565b5f819050919050565b5f61028b6102866102818461025f565b610268565b61025f565b9050919050565b5f819050919050565b6102a483610271565b6102b86102b082610292565b84845461020e565b825550505050565b5f5f905090565b6102cf6102c0565b6102da81848461029b565b505050565b5b818110156102fd576102f25f826102c7565b6001810190506102e0565b5050565b601f82111561034257610313816101e1565b61031c846101f3565b8101602085101561032b578190505b61033f610337856101f3565b8301826102df565b50505b505050565b5f82821c905092915050565b5f6103625f1984600802610347565b1980831691505092915050565b5f61037a8383610353565b9150826002028217905092915050565b6103938261014d565b67ffffffffffffffff8111156103ac576103ab610157565b5b6103b682546101b1565b6103c1828285610301565b5f60209050601f8311600181146103f2575f84156103e0578287015190505b6103ea858261036f565b865550610451565b601f198416610400866101e1565b5f5b8281101561042757848901518255600182019150602085019450602081019050610402565b868310156104445784890151610440601f891682610353565b8355505b6001600288020188555050505b505050505050565b612055806104665f395ff3fe608060405234801561000f575f5ffd5b506004361061009b575f3560e01c806397fc007c1161006457806397fc007c1461017b578063a22cb46514610197578063da730836146101b3578063e985e9c5146101d1578063f242432a146102015761009b565b8062fdd58e1461009f57806301ffc9a7146100cf5780630e89341c146100ff5780632eb2c2d61461012f5780634e1273f41461014b575b5f5ffd5b6100b960048036038101906100b49190611449565b61021d565b6040516100c69190611496565b60405180910390f35b6100e960048036038101906100e49190611504565b610272565b6040516100f69190611549565b60405180910390f35b61011960048036038101906101149190611562565b610353565b60405161012691906115fd565b60405180910390f35b6101496004803603810190610144919061180d565b6103e5565b005b61016560048036038101906101609190611998565b61048c565b6040516101729190611ac5565b60405180910390f35b61019560048036038101906101909190611b20565b610596565b005b6101b160048036038101906101ac9190611b75565b610675565b005b6101bb61068b565b6040516101c89190611c0e565b60405180910390f35b6101eb60048036038101906101e69190611c27565b6106b0565b6040516101f89190611549565b60405180910390f35b61021b60048036038101906102169190611c65565b61073e565b005b5f5f5f8381526020019081526020015f205f8473ffffffffffffffffffffffffffffffffffffffff1673ffffffffffffffffffffffffffffffffffffffff1681526020019081526020015f2054905092915050565b5f7fd9b67a26000000000000000000000000000000000000000000000000000000007bffffffffffffffffffffffffffffffffffffffffffffffffffffffff1916827bffffffffffffffffffffffffffffffffffffffffffffffffffffffff1916148061033c57507f0e89341c000000000000000000000000000000000000000000000000000000007bffffffffffffffffffffffffffffffffffffffffffffffffffffffff1916827bffffffffffffffffffffffffffffffffffffffffffffffffffffffff1916145b8061034c575061034b826107e5565b5b9050919050565b60606002805461036290611d25565b80601f016020809104026020016040519081016040528092919081815260200182805461038e90611d25565b80156103d95780601f106103b0576101008083540402835291602001916103d9565b820191905f5260205f20905b8154815290600101906020018083116103bc57829003601f168201915b50505050509050919050565b5f6103ee61084e565b90508073ffffffffffffffffffffffffffffffffffffffff168673ffffffffffffffffffffffffffffffffffffffff1614158015610433575061043186826106b0565b155b156104775780866040517fe237d92200000000000000000000000000000000000000000000000000000000815260040161046e929190611d64565b60405180910390fd5b6104848686868686610855565b505050505050565b606081518351146104d857815183516040517f5b0599910000000000000000000000000000000000000000000000000000000081526004016104cf929190611d8b565b60405180910390fd5b5f835167ffffffffffffffff8111156104f4576104f3611621565b5b6040519080825280602002602001820160405280156105225781602001602082028036833780820191505090505b5090505f5f90505b845181101561058b57610561610549828761094990919063ffffffff16565b61055c838761095c90919063ffffffff16565b61021d565b82828151811061057457610573611db2565b5b60200260200101818152505080600101905061052a565b508091505092915050565b5f73ffffffffffffffffffffffffffffffffffffffff168173ffffffffffffffffffffffffffffffffffffffff16036105fb576040517f24661b0a00000000000000000000000000000000000000000000000000000000815260040160405180910390fd5b8060035f6101000a81548173ffffffffffffffffffffffffffffffffffffffff021916908373ffffffffffffffffffffffffffffffffffffffff1602179055507f8320f616f21b1990babcbe80e84448b3a81b3805dd2b1aa27fb114e990c0601c8160405161066a9190611c0e565b60405180910390a150565b61068761068061084e565b838361096f565b5050565b60035f9054906101000a900473ffffffffffffffffffffffffffffffffffffffff1681565b5f60015f8473ffffffffffffffffffffffffffffffffffffffff1673ffffffffffffffffffffffffffffffffffffffff1681526020019081526020015f205f8373ffffffffffffffffffffffffffffffffffffffff1673ffffffffffffffffffffffffffffffffffffffff1681526020019081526020015f205f9054906101000a900460ff16905092915050565b5f61074761084e565b90508073ffffffffffffffffffffffffffffffffffffffff168673ffffffffffffffffffffffffffffffffffffffff161415801561078c575061078a86826106b0565b155b156107d05780866040517fe237d9220000000000000000000000000000000000000000000000000000000081526004016107c7929190611d64565b60405180910390fd5b6107dd8686868686610ad8565b505050505050565b5f7f01ffc9a7000000000000000000000000000000000000000000000000000000007bffffffffffffffffffffffffffffffffffffffffffffffffffffffff1916827bffffffffffffffffffffffffffffffffffffffffffffffffffffffff1916149050919050565b5f33905090565b5f73ffffffffffffffffffffffffffffffffffffffff168473ffffffffffffffffffffffffffffffffffffffff16036108c5575f6040517f57f447ce0000000000000000000000000000000000000000000000000000000081526004016108bc9190611ddf565b60405180910390fd5b5f73ffffffffffffffffffffffffffffffffffffffff168573ffffffffffffffffffffffffffffffffffffffff1603610935575f6040517f01a8351400000000000000000000000000000000000000000000000000000000815260040161092c9190611ddf565b60405180910390fd5b6109428585858585610bde565b5050505050565b5f60208202602084010151905092915050565b5f60208202602084010151905092915050565b5f73ffffffffffffffffffffffffffffffffffffffff168273ffffffffffffffffffffffffffffffffffffffff16036109df575f6040517fced3e1000000000000000000000000000000000000000000000000000000000081526004016109d69190611ddf565b60405180910390fd5b8060015f8573ffffffffffffffffffffffffffffffffffffffff1673ffffffffffffffffffffffffffffffffffffffff1681526020019081526020015f205f8473ffffffffffffffffffffffffffffffffffffffff1673ffffffffffffffffffffffffffffffffffffffff1681526020019081526020015f205f6101000a81548160ff0219169083151502179055508173ffffffffffffffffffffffffffffffffffffffff168373ffffffffffffffffffffffffffffffffffffffff167f17307eab39ab6107e8899845ad3d59bd9653f200f220920489ca2b5937696c3183604051610acb9190611549565b60405180910390a3505050565b5f73ffffffffffffffffffffffffffffffffffffffff168473ffffffffffffffffffffffffffffffffffffffff1603610b48575f6040517f57f447ce000000000000000000000000000000000000000000000000000000008152600401610b3f9190611ddf565b60405180910390fd5b5f73ffffffffffffffffffffffffffffffffffffffff168573ffffffffffffffffffffffffffffffffffffffff1603610bb8575f6040517f01a83514000000000000000000000000000000000000000000000000000000008152600401610baf9190611ddf565b60405180910390fd5b5f5f610bc48585610c8a565b91509150610bd58787848487610bde565b50505050505050565b610bea85858585610cba565b5f73ffffffffffffffffffffffffffffffffffffffff168473ffffffffffffffffffffffffffffffffffffffff1614610c83575f610c2661084e565b90506001845103610c72575f610c455f8661095c90919063ffffffff16565b90505f610c5b5f8661095c90919063ffffffff16565b9050610c6b83898985858961104d565b5050610c81565b610c808187878787876111fc565b5b505b5050505050565b60608060405191506001825283602083015260408201905060018152826020820152604081016040529250929050565b8051825114610d0457815181516040517f5b059991000000000000000000000000000000000000000000000000000000008152600401610cfb929190611d8b565b60405180910390fd5b5f610d0d61084e565b90505f5f90505b8351811015610f0c575f610d31828661095c90919063ffffffff16565b90505f610d47838661095c90919063ffffffff16565b90505f73ffffffffffffffffffffffffffffffffffffffff168873ffffffffffffffffffffffffffffffffffffffff1614610e6a575f5f5f8481526020019081526020015f205f8a73ffffffffffffffffffffffffffffffffffffffff1673ffffffffffffffffffffffffffffffffffffffff1681526020019081526020015f2054905081811015610e1657888183856040517f03dee4c5000000000000000000000000000000000000000000000000000000008152600401610e0d9493929190611df8565b60405180910390fd5b8181035f5f8581526020019081526020015f205f8b73ffffffffffffffffffffffffffffffffffffffff1673ffffffffffffffffffffffffffffffffffffffff1681526020019081526020015f2081905550505b5f73ffffffffffffffffffffffffffffffffffffffff168773ffffffffffffffffffffffffffffffffffffffff1614610eff57805f5f8481526020019081526020015f205f8973ffffffffffffffffffffffffffffffffffffffff1673ffffffffffffffffffffffffffffffffffffffff1681526020019081526020015f205f828254610ef79190611e68565b925050819055505b5050806001019050610d14565b506001835103610fc7575f610f2a5f8561095c90919063ffffffff16565b90505f610f405f8561095c90919063ffffffff16565b90508573ffffffffffffffffffffffffffffffffffffffff168773ffffffffffffffffffffffffffffffffffffffff168473ffffffffffffffffffffffffffffffffffffffff167fc3d58168c5ae7397731d063d5bbf3d657854427343f4c083240f7aacaa2d0f628585604051610fb8929190611d8b565b60405180910390a45050611046565b8373ffffffffffffffffffffffffffffffffffffffff168573ffffffffffffffffffffffffffffffffffffffff168273ffffffffffffffffffffffffffffffffffffffff167f4a39dc06d4c0dbc64b70af90fd698a233a518aa5d07e595d983b8c0526c8f7fb868660405161103d929190611e9b565b60405180910390a45b5050505050565b5f8473ffffffffffffffffffffffffffffffffffffffff163b11156111f4578373ffffffffffffffffffffffffffffffffffffffff1663f23a6e6187878686866040518663ffffffff1660e01b81526004016110ad959493929190611f22565b6020604051808303815f875af19250505080156110e857506040513d601f19601f820116820180604052508101906110e59190611f8e565b60015b611169573d805f8114611116576040519150601f19603f3d011682016040523d82523d5f602084013e61111b565b606091505b505f81510361116157846040517f57f447ce0000000000000000000000000000000000000000000000000000000081526004016111589190611ddf565b60405180910390fd5b805160208201fd5b63f23a6e6160e01b7bffffffffffffffffffffffffffffffffffffffffffffffffffffffff1916817bffffffffffffffffffffffffffffffffffffffffffffffffffffffff1916146111f257846040517f57f447ce0000000000000000000000000000000000000000000000000000000081526004016111e99190611ddf565b60405180910390fd5b505b505050505050565b5f8473ffffffffffffffffffffffffffffffffffffffff163b11156113a3578373ffffffffffffffffffffffffffffffffffffffff1663bc197c8187878686866040518663ffffffff1660e01b815260040161125c959493929190611fb9565b6020604051808303815f875af192505050801561129757506040513d601f19601f820116820180604052508101906112949190611f8e565b60015b611318573d805f81146112c5576040519150601f19603f3d011682016040523d82523d5f602084013e6112ca565b606091505b505f81510361131057846040517f57f447ce0000000000000000000000000000000000000000000000000000000081526004016113079190611ddf565b60405180910390fd5b805160208201fd5b63bc197c8160e01b7bffffffffffffffffffffffffffffffffffffffffffffffffffffffff1916817bffffffffffffffffffffffffffffffffffffffffffffffffffffffff1916146113a157846040517f57f447ce0000000000000000000000000000000000000000000000000000000081526004016113989190611ddf565b60405180910390fd5b505b505050505050565b5f604051905090565b5f5ffd5b5f5ffd5b5f73ffffffffffffffffffffffffffffffffffffffff82169050919050565b5f6113e5826113bc565b9050919050565b6113f5816113db565b81146113ff575f5ffd5b50565b5f81359050611410816113ec565b92915050565b5f819050919050565b61142881611416565b8114611432575f5ffd5b50565b5f813590506114438161141f565b92915050565b5f5f6040838503121561145f5761145e6113b4565b5b5f61146c85828601611402565b925050602061147d85828601611435565b9150509250929050565b61149081611416565b82525050565b5f6020820190506114a95f830184611487565b92915050565b5f7fffffffff0000000000000000000000000000000000000000000000000000000082169050919050565b6114e3816114af565b81146114ed575f5ffd5b50565b5f813590506114fe816114da565b92915050565b5f60208284031215611519576115186113b4565b5b5f611526848285016114f0565b91505092915050565b5f8115159050919050565b6115438161152f565b82525050565b5f60208201905061155c5f83018461153a565b92915050565b5f60208284031215611577576115766113b4565b5b5f61158484828501611435565b91505092915050565b5f81519050919050565b5f82825260208201905092915050565b8281835e5f83830152505050565b5f601f19601f8301169050919050565b5f6115cf8261158d565b6115d98185611597565b93506115e98185602086016115a7565b6115f2816115b5565b840191505092915050565b5f6020820190508181035f83015261161581846115c5565b905092915050565b5f5ffd5b7f4e487b71000000000000000000000000000000000000000000000000000000005f52604160045260245ffd5b611657826115b5565b810181811067ffffffffffffffff8211171561167657611675611621565b5b80604052505050565b5f6116886113ab565b9050611694828261164e565b919050565b5f67ffffffffffffffff8211156116b3576116b2611621565b5b602082029050602081019050919050565b5f5ffd5b5f6116da6116d584611699565b61167f565b905080838252602082019050602084028301858111156116fd576116fc6116c4565b5b835b8181101561172657806117128882611435565b8452602084019350506020810190506116ff565b5050509392505050565b5f82601f8301126117445761174361161d565b5b81356117548482602086016116c8565b91505092915050565b5f5ffd5b5f67ffffffffffffffff82111561177b5761177a611621565b5b611784826115b5565b9050602081019050919050565b828183375f83830152505050565b5f6117b16117ac84611761565b61167f565b9050828152602081018484840111156117cd576117cc61175d565b5b6117d8848285611791565b509392505050565b5f82601f8301126117f4576117f361161d565b5b813561180484826020860161179f565b91505092915050565b5f5f5f5f5f60a08688031215611826576118256113b4565b5b5f61183388828901611402565b955050602061184488828901611402565b945050604086013567ffffffffffffffff811115611865576118646113b8565b5b61187188828901611730565b935050606086013567ffffffffffffffff811115611892576118916113b8565b5b61189e88828901611730565b925050608086013567ffffffffffffffff8111156118bf576118be6113b8565b5b6118cb888289016117e0565b9150509295509295909350565b5f67ffffffffffffffff8211156118f2576118f1611621565b5b602082029050602081019050919050565b5f611915611910846118d8565b61167f565b90508083825260208201905060208402830185811115611938576119376116c4565b5b835b81811015611961578061194d8882611402565b84526020840193505060208101905061193a565b5050509392505050565b5f82601f83011261197f5761197e61161d565b5b813561198f848260208601611903565b91505092915050565b5f5f604083850312156119ae576119ad6113b4565b5b5f83013567ffffffffffffffff8111156119cb576119ca6113b8565b5b6119d78582860161196b565b925050602083013567ffffffffffffffff8111156119f8576119f76113b8565b5b611a0485828601611730565b9150509250929050565b5f81519050919050565b5f82825260208201905092915050565b5f819050602082019050919050565b611a4081611416565b82525050565b5f611a518383611a37565b60208301905092915050565b5f602082019050919050565b5f611a7382611a0e565b611a7d8185611a18565b9350611a8883611a28565b805f5b83811015611ab8578151611a9f8882611a46565b9750611aaa83611a5d565b925050600181019050611a8b565b5085935050505092915050565b5f6020820190508181035f830152611add8184611a69565b905092915050565b5f611aef826113db565b9050919050565b611aff81611ae5565b8114611b09575f5ffd5b50565b5f81359050611b1a81611af6565b92915050565b5f60208284031215611b3557611b346113b4565b5b5f611b4284828501611b0c565b91505092915050565b611b548161152f565b8114611b5e575f5ffd5b50565b5f81359050611b6f81611b4b565b92915050565b5f5f60408385031215611b8b57611b8a6113b4565b5b5f611b9885828601611402565b9250506020611ba985828601611b61565b9150509250929050565b5f819050919050565b5f611bd6611bd1611bcc846113bc565b611bb3565b6113bc565b9050919050565b5f611be782611bbc565b9050919050565b5f611bf882611bdd565b9050919050565b611c0881611bee565b82525050565b5f602082019050611c215f830184611bff565b92915050565b5f5f60408385031215611c3d57611c3c6113b4565b5b5f611c4a85828601611402565b9250506020611c5b85828601611402565b9150509250929050565b5f5f5f5f5f60a08688031215611c7e57611c7d6113b4565b5b5f611c8b88828901611402565b9550506020611c9c88828901611402565b9450506040611cad88828901611435565b9350506060611cbe88828901611435565b925050608086013567ffffffffffffffff811115611cdf57611cde6113b8565b5b611ceb888289016117e0565b9150509295509295909350565b7f4e487b71000000000000000000000000000000000000000000000000000000005f52602260045260245ffd5b5f6002820490506001821680611d3c57607f821691505b602082108103611d4f57611d4e611cf8565b5b50919050565b611d5e816113db565b82525050565b5f604082019050611d775f830185611d55565b611d846020830184611d55565b9392505050565b5f604082019050611d9e5f830185611487565b611dab6020830184611487565b9392505050565b7f4e487b71000000000000000000000000000000000000000000000000000000005f52603260045260245ffd5b5f602082019050611df25f830184611d55565b92915050565b5f608082019050611e0b5f830187611d55565b611e186020830186611487565b611e256040830185611487565b611e326060830184611487565b95945050505050565b7f4e487b71000000000000000000000000000000000000000000000000000000005f52601160045260245ffd5b5f611e7282611416565b9150611e7d83611416565b9250828201905080821115611e9557611e94611e3b565b5b92915050565b5f6040820190508181035f830152611eb38185611a69565b90508181036020830152611ec78184611a69565b90509392505050565b5f81519050919050565b5f82825260208201905092915050565b5f611ef482611ed0565b611efe8185611eda565b9350611f0e8185602086016115a7565b611f17816115b5565b840191505092915050565b5f60a082019050611f355f830188611d55565b611f426020830187611d55565b611f4f6040830186611487565b611f5c6060830185611487565b8181036080830152611f6e8184611eea565b90509695505050505050565b5f81519050611f88816114da565b92915050565b5f60208284031215611fa357611fa26113b4565b5b5f611fb084828501611f7a565b91505092915050565b5f60a082019050611fcc5f830188611d55565b611fd96020830187611d55565b8181036040830152611feb8186611a69565b90508181036060830152611fff8185611a69565b905081810360808301526120138184611eea565b9050969550505050505056fea26469706673582212205e0b98cd5f584b0eac461765bd4700e5e3c61a69e90a82ad94470bc6e1ed320664736f6c634300081e0033697066733a2f2f62616679626569637166633469706b6c653334746771763367683767636377686d7232327164673770366b366f786f6e3235356d6e7762366373692f7b69647d2e6a736f6e","linkReferences":{}},"methodIdentifiers":{"balanceOf(address,uint256)":"00fdd58e","balanceOfBatch(address[],uint256[])":"4e1273f4","isApprovedForAll(address,address)":"e985e9c5","s_verifier()":"da730836","safeBatchTransferFrom(address,address,uint256[],uint256[],bytes)":"2eb2c2d6","safeTransferFrom(address,address,uint256,uint256,bytes)":"f242432a","setApprovalForAll(address,bool)":"a22cb465","supportsInterface(bytes4)":"01ffc9a7","updateVerifier(address)":"97fc007c","uri(uint256)":"0e89341c"},"id":16}