{"abi":[{"type":"constructor","inputs":[{"name":"_verifier","type":"address","internalType":"contract IVerifier"}],"stateMutability":"nonpayable"},{"type":"function","name":"balanceOf","inputs":[{"name":"account","type":"address","internalType":"address"},{"name":"id","type":"uint256","internalType":"uint256"}],"outputs":[{"name":"","type":"uint256","internalType":"uint256"}],"stateMutability":"view"},{"type":"function","name":"balanceOfBatch","inputs":[{"name":"accounts","type":"address[]","internalType":"address[]"},{"name":"ids","type":"uint256[]","internalType":"uint256[]"}],"outputs":[{"name":"","type":"uint256[]","internalType":"uint256[]"}],"stateMutability":"view"},{"type":"function","name":"isApprovedForAll","inputs":[{"name":"account","type":"address","internalType":"address"},{"name":"operator","type":"address","internalType":"address"}],"outputs":[{"name":"","type":"bool","internalType":"bool"}],"stateMutability":"view"},{"type":"function","name":"makeGuess","inputs":[{"name":"_proof","type":"bytes","internalType":"bytes"}],"outputs":[{"name":"","type":"bool","internalType":"bool"}],"stateMutability":"nonpayable"},{"type":"function","name":"newRound","inputs":[{"name":"_answer","type":"bytes32","internalType":"bytes32"}],"outputs":[],"stateMutability":"nonpayable"},{"type":"function","name":"owner","inputs":[],"outputs":[{"name":"","type":"address","internalType":"address"}],"stateMutability":"view"},{"type":"function","name":"renounceOwnership","inputs":[],"outputs":[],"stateMutability":"nonpayable"},{"type":"function","name":"s_verifier","inputs":[],"outputs":[{"name":"","type":"address","internalType":"contract IVerifier"}],"stateMutability":"view"},{"type":"function","name":"safeBatchTransferFrom","inputs":[{"name":"from","type":"address","internalType":"address"},{"name":"to","type":"address","internalType":"address"},{"name":"ids","type":"uint256[]","internalType":"uint256[]"},{"name":"values","type":"uint256[]","internalType":"uint256[]"},{"name":"data","type":"bytes","internalType":"bytes"}],"outputs":[],"stateMutability":"nonpayable"},{"type":"function","name":"safeTransferFrom","inputs":[{"name":"from","type":"address","internalType":"address"},{"name":"to","type":"address","internalType":"address"},{"name":"id","type":"uint256","internalType":"uint256"},{"name":"value","type":"uint256","internalType":"uint256"},{"name":"data","type":"bytes","internalType":"bytes"}],"outputs":[],"stateMutability":"nonpayable"},{"type":"function","name":"setApprovalForAll","inputs":[{"name":"operator","type":"address","internalType":"address"},{"name":"approved","type":"bool","internalType":"bool"}],"outputs":[],"stateMutability":"nonpayable"},{"type":"function","name":"supportsInterface","inputs":[{"name":"interfaceId","type":"bytes4","internalType":"bytes4"}],"outputs":[{"name":"","type":"bool","internalType":"bool"}],"stateMutability":"view"},{"type":"function","name":"transferOwnership","inputs":[{"name":"newOwner","type":"address","internalType":"address"}],"outputs":[],"stateMutability":"nonpayable"},{"type":"function","name":"updateVerifier","inputs":[{"name":"_verifier","type":"address","internalType":"contract IVerifier"}],"outputs":[],"stateMutability":"nonpayable"},{"type":"function","name":"uri","inputs":[{"name":"","type":"uint256","internalType":"uint256"}],"outputs":[{"name":"","type":"string","internalType":"string"}],"stateMutability":"view"},{"type":"event","name":"ApprovalForAll","inputs":[{"name":"account","type":"address","indexed":true,"internalType":"address"},{"name":"operator","type":"address","indexed":true,"internalType":"address"},{"name":"approved","type":"bool","indexed":false,"internalType":"bool"}],"anonymous":false},{"type":"event","name":"OwnershipTransferred","inputs":[{"name":"previousOwner","type":"address","indexed":true,"internalType":"address"},{"name":"newOwner","type":"address","indexed":true,"internalType":"address"}],"anonymous":false},{"type":"event","name":"Panagram_NewRoundStarted","inputs":[{"name":"answer","type":"bytes32","indexed":false,"internalType":"bytes32"}],"anonymous":false},{"type":"event","name":"Panagram_RunnerUpCrowned","inputs":[{"name":"runnerUp","type":"address","indexed":true,"internalType":"address"},{"name":"round","type":"uint256","indexed":false,"internalType":"uint256"}],"anonymous":false},{"type":"event","name":"Panagram_VerifierUpdated","inputs":[{"name":"verifier","type":"address","indexed":false,"internalType":"contract IVerifier"}],"anonymous":false},{"type":"event","name":"Panagram_WinnerCrowned","inputs":[{"name":"winner","type":"address","indexed":true,"internalType":"address"},{"name":"round","type":"uint256","indexed":false,"internalType":"uint256"}],"anonymous":false},{"type":"event","name":"TransferBatch","inputs":[{"name":"operator","type":"address","indexed":true,"internalType":"address"},{"name":"from","type":"address","indexed":true,"internalType":"address"},{"name":"to","type":"address","indexed":true,"internalType":"address"},{"name":"ids","type":"uint256[]","indexed":false,"internalType":"uint256[]"},{"name":"values","type":"uint256[]","indexed":false,"internalType":"uint256[]"}],"anonymous":false},{"type":"event","name":"TransferSingle","inputs":[{"name":"operator","type":"address","indexed":true,"internalType":"address"},{"name":"from","type":"address","indexed":true,"internalType":"address"},{"name":"to","type":"address","indexed":true,"internalType":"address"},{"name":"id","type":"uint256","indexed":false,"internalType":"uint256"},{"name":"value","type":"uint256","indexed":false,"internalType":"uint256"}],"anonymous":false},{"type":"event","name":"URI","inputs":[{"name":"value","type":"string","indexed":false,"internalType":"string"},{"name":"id","type":"uint256","indexed":true,"internalType":"uint256"}],"anonymous":false},{"type":"error","name":"ERC1155InsufficientBalance","inputs":[{"name":"sender","type":"address","internalType":"address"},{"name":"balance","type":"uint256","internalType":"uint256"},{"name":"needed","type":"uint256","internalType":"uint256"},{"name":"tokenId","type":"uint256","internalType":"uint256"}]},{"type":"error","name":"ERC1155InvalidApprover","inputs":[{"name":"approver","type":"address","internalType":"address"}]},{"type":"error","name":"ERC1155InvalidArrayLength","inputs":[{"name":"idsLength","type":"uint256","internalType":"uint256"},{"name":"valuesLength","type":"uint256","internalType":"uint256"}]},{"type":"error","name":"ERC1155InvalidOperator","inputs":[{"name":"operator","type":"address","internalType":"address"}]},{"type":"error","name":"ERC1155InvalidReceiver","inputs":[{"name":"receiver","type":"address","internalType":"address"}]},{"type":"error","name":"ERC1155InvalidSender","inputs":[{"name":"sender","type":"address","internalType":"address"}]},{"type":"error","name":"ERC1155MissingApprovalForAll","inputs":[{"name":"operator","type":"address","internalType":"address"},{"name":"owner","type":"address","internalType":"address"}]},{"type":"error","name":"OwnableInvalidOwner","inputs":[{"name":"owner","type":"address","internalType":"address"}]},{"type":"error","name":"OwnableUnauthorizedAccount","inputs":[{"name":"account","type":"address","internalType":"address"}]},{"type":"error","name":"Panagram__AlreadyGuessedCorrectly","inputs":[{"name":"roundNumber","type":"uint256","internalType":"uint256"},{"name":"player","type":"address","internalType":"address"}]},{"type":"error","name":"Panagram__EmptyAnswer","inputs":[]},{"type":"error","name":"Panagram__FirstPanagramNotSet","inputs":[]},{"type":"error","name":"Panagram__InvalidProof","inputs":[]},{"type":"error","name":"Panagram__InvalidVerifierAddress","inputs":[]},{"type":"error","name":"Panagram__MinTimeNotPassed","inputs":[{"name":"minRoundDuration","type":"uint256","internalType":"uint256"},{"name":"passedTime","type":"uint256","internalType":"uint256"}]},{"type":"error","name":"Panagram__NoRoundWinner","inputs":[]}],"bytecode":{"object":"0x608060405234801561000f575f5ffd5b5060405161332738038061332783398181016040528101906100319190610319565b336040518060800160405280604c81526020016132db604c913961005a816101d460201b60201c565b505f73ffffffffffffffffffffffffffffffffffffffff168173ffffffffffffffffffffffffffffffffffffffff16036100cb575f6040517f1e4fbdf70000000000000000000000000000000000000000000000000000000081526004016100c29190610353565b60405180910390fd5b6100da816101e760201b60201c565b505f73ffffffffffffffffffffffffffffffffffffffff168173ffffffffffffffffffffffffffffffffffffffff1603610140576040517f24661b0a00000000000000000000000000000000000000000000000000000000815260040160405180910390fd5b8060045f6101000a81548173ffffffffffffffffffffffffffffffffffffffff021916908373ffffffffffffffffffffffffffffffffffffffff1602179055505f6005819055505f6008819055505f60065f6101000a81548173ffffffffffffffffffffffffffffffffffffffff021916908373ffffffffffffffffffffffffffffffffffffffff16021790555050610678565b80600290816101e391906105a9565b5050565b5f60035f9054906101000a900473ffffffffffffffffffffffffffffffffffffffff1690508160035f6101000a81548173ffffffffffffffffffffffffffffffffffffffff021916908373ffffffffffffffffffffffffffffffffffffffff1602179055508173ffffffffffffffffffffffffffffffffffffffff168173ffffffffffffffffffffffffffffffffffffffff167f8be0079c531659141344cd1fd0a4f28419497f9722a3daafe3b4186f6b6457e060405160405180910390a35050565b5f5ffd5b5f73ffffffffffffffffffffffffffffffffffffffff82169050919050565b5f6102d7826102ae565b9050919050565b5f6102e8826102cd565b9050919050565b6102f8816102de565b8114610302575f5ffd5b50565b5f81519050610313816102ef565b92915050565b5f6020828403121561032e5761032d6102aa565b5b5f61033b84828501610305565b91505092915050565b61034d816102cd565b82525050565b5f6020820190506103665f830184610344565b92915050565b5f81519050919050565b7f4e487b71000000000000000000000000000000000000000000000000000000005f52604160045260245ffd5b7f4e487b71000000000000000000000000000000000000000000000000000000005f52602260045260245ffd5b5f60028204905060018216806103e757607f821691505b6020821081036103fa576103f96103a3565b5b50919050565b5f819050815f5260205f209050919050565b5f6020601f8301049050919050565b5f82821b905092915050565b5f6008830261045c7fffffffffffffffffffffffffffffffffffffffffffffffffffffffffffffffff82610421565b6104668683610421565b95508019841693508086168417925050509392505050565b5f819050919050565b5f819050919050565b5f6104aa6104a56104a08461047e565b610487565b61047e565b9050919050565b5f819050919050565b6104c383610490565b6104d76104cf826104b1565b84845461042d565b825550505050565b5f5f905090565b6104ee6104df565b6104f98184846104ba565b505050565b5b8181101561051c576105115f826104e6565b6001810190506104ff565b5050565b601f8211156105615761053281610400565b61053b84610412565b8101602085101561054a578190505b61055e61055685610412565b8301826104fe565b50505b505050565b5f82821c905092915050565b5f6105815f1984600802610566565b1980831691505092915050565b5f6105998383610572565b9150826002028217905092915050565b6105b28261036c565b67ffffffffffffffff8111156105cb576105ca610376565b5b6105d582546103d0565b6105e0828285610520565b5f60209050601f831160018114610611575f84156105ff578287015190505b610609858261058e565b865550610670565b601f19841661061f86610400565b5f5b8281101561064657848901518255600182019150602085019450602081019050610621565b86831015610663578489015161065f601f891682610572565b8355505b6001600288020188555050505b505050505050565b612c56806106855f395ff3fe608060405234801561000f575f5ffd5b50600436106100f2575f3560e01c80637d1ca52c11610095578063da73083611610064578063da7308361461027e578063e985e9c51461029c578063f242432a146102cc578063f2fde38b146102e8576100f2565b80637d1ca52c1461020c5780638da5cb5b1461022857806397fc007c14610246578063a22cb46514610262576100f2565b80632eb2c2d6116100d15780632eb2c2d6146101865780633dc09e05146101a25780634e1273f4146101d2578063715018a614610202576100f2565b8062fdd58e146100f657806301ffc9a7146101265780630e89341c14610156575b5f5ffd5b610110600480360381019061010b9190611d86565b610304565b60405161011d9190611dd3565b60405180910390f35b610140600480360381019061013b9190611e41565b610359565b60405161014d9190611e86565b60405180910390f35b610170600480360381019061016b9190611e9f565b61043a565b60405161017d9190611f3a565b60405180910390f35b6101a0600480360381019061019b919061214a565b6104cc565b005b6101bc60048036038101906101b79190612215565b610573565b6040516101c99190611e86565b60405180910390f35b6101ec60048036038101906101e7919061231c565b610939565b6040516101f99190612449565b60405180910390f35b61020a610a43565b005b6102266004803603810190610221919061249c565b610a56565b005b610230610c40565b60405161023d91906124d6565b60405180910390f35b610260600480360381019061025b919061252a565b610c68565b005b61027c6004803603810190610277919061257f565b610d4f565b005b610286610d65565b6040516102939190612618565b60405180910390f35b6102b660048036038101906102b19190612631565b610d8a565b6040516102c39190611e86565b60405180910390f35b6102e660048036038101906102e1919061266f565b610e18565b005b61030260048036038101906102fd9190612702565b610ebf565b005b5f5f5f8381526020019081526020015f205f8473ffffffffffffffffffffffffffffffffffffffff1673ffffffffffffffffffffffffffffffffffffffff1681526020019081526020015f2054905092915050565b5f7fd9b67a26000000000000000000000000000000000000000000000000000000007bffffffffffffffffffffffffffffffffffffffffffffffffffffffff1916827bffffffffffffffffffffffffffffffffffffffffffffffffffffffff1916148061042357507f0e89341c000000000000000000000000000000000000000000000000000000007bffffffffffffffffffffffffffffffffffffffffffffffffffffffff1916827bffffffffffffffffffffffffffffffffffffffffffffffffffffffff1916145b80610433575061043282610f43565b5b9050919050565b6060600280546104499061275a565b80601f01602080910402602001604051908101604052809291908181526020018280546104759061275a565b80156104c05780601f10610497576101008083540402835291602001916104c0565b820191905f5260205f20905b8154815290600101906020018083116104a357829003601f168201915b50505050509050919050565b5f6104d5610fac565b90508073ffffffffffffffffffffffffffffffffffffffff168673ffffffffffffffffffffffffffffffffffffffff161415801561051a57506105188682610d8a565b155b1561055e5780866040517fe237d92200000000000000000000000000000000000000000000000000000000815260040161055592919061278a565b60405180910390fd5b61056b8686868686610fb3565b505050505050565b5f5f600854036105af576040517f29db9c1d00000000000000000000000000000000000000000000000000000000815260040160405180910390fd5b60085460095f3373ffffffffffffffffffffffffffffffffffffffff1673ffffffffffffffffffffffffffffffffffffffff1681526020019081526020015f20540361063657600854336040517f794f348900000000000000000000000000000000000000000000000000000000815260040161062d9291906127b1565b60405180910390fd5b5f600167ffffffffffffffff81111561065257610651611f5e565b5b6040519080825280602002602001820160405280156106805781602001602082028036833780820191505090505b509050600754815f81518110610699576106986127d8565b5b6020026020010181815250505f60045f9054906101000a900473ffffffffffffffffffffffffffffffffffffffff1673ffffffffffffffffffffffffffffffffffffffff1663ea50d0e485846040518363ffffffff1660e01b815260040161070292919061290e565b602060405180830381865afa15801561071d573d5f5f3e3d5ffd5b505050506040513d601f19601f820116820180604052508101906107419190612957565b90508061077a576040517fd7cd932000000000000000000000000000000000000000000000000000000000815260040160405180910390fd5b60085460095f3373ffffffffffffffffffffffffffffffffffffffff1673ffffffffffffffffffffffffffffffffffffffff1681526020019081526020015f20819055505f73ffffffffffffffffffffffffffffffffffffffff1660065f9054906101000a900473ffffffffffffffffffffffffffffffffffffffff1673ffffffffffffffffffffffffffffffffffffffff16036108c2573360065f6101000a81548173ffffffffffffffffffffffffffffffffffffffff021916908373ffffffffffffffffffffffffffffffffffffffff16021790555061086d335f600160405180602001604052805f8152506110a7565b3373ffffffffffffffffffffffffffffffffffffffff167f6b99402211fd0517030665fea72b8a569af909d7c4ba4917b3fdba78ca971e536008546040516108b59190611dd3565b60405180910390a261092e565b6108dd3360018060405180602001604052805f8152506110a7565b3373ffffffffffffffffffffffffffffffffffffffff167ff1d1a868c1582fb7d83eb4ad2d9b64b2afea9aab9ff4ace1c686c75d824c8dea6008546040516109259190611dd3565b60405180910390a25b600192505050919050565b6060815183511461098557815183516040517f5b05999100000000000000000000000000000000000000000000000000000000815260040161097c929190612982565b60405180910390fd5b5f835167ffffffffffffffff8111156109a1576109a0611f5e565b5b6040519080825280602002602001820160405280156109cf5781602001602082028036833780820191505090505b5090505f5f90505b8451811015610a3857610a0e6109f6828761113c90919063ffffffff16565b610a09838761114f90919063ffffffff16565b610304565b828281518110610a2157610a206127d8565b5b6020026020010181815250508060010190506109d7565b508091505092915050565b610a4b611162565b610a545f6111e9565b565b610a5e611162565b5f5f1b8103610a99576040517fa2f170b300000000000000000000000000000000000000000000000000000000815260040160405180910390fd5b5f60055403610ab5574260058190555080600781905550610bef565b612a30600554610ac591906129d6565b421015610b1a57612a3060055442610add9190612a09565b6040517f5af8b00a000000000000000000000000000000000000000000000000000000008152600401610b11929190612982565b60405180910390fd5b5f73ffffffffffffffffffffffffffffffffffffffff1660065f9054906101000a900473ffffffffffffffffffffffffffffffffffffffff1673ffffffffffffffffffffffffffffffffffffffff1603610ba0576040517fc47dfa5900000000000000000000000000000000000000000000000000000000815260040160405180910390fd5b426005819055505f60065f6101000a81548173ffffffffffffffffffffffffffffffffffffffff021916908373ffffffffffffffffffffffffffffffffffffffff160217905550806007819055505b60085f815480929190610c0190612a3c565b91905055507fb0f25f2a101d37a2c8e4e603ebccebf9c6e8c22e6c11b5fb8e1c7d64c2f6f65d81604051610c359190612a92565b60405180910390a150565b5f60035f9054906101000a900473ffffffffffffffffffffffffffffffffffffffff16905090565b610c70611162565b5f73ffffffffffffffffffffffffffffffffffffffff168173ffffffffffffffffffffffffffffffffffffffff1603610cd5576040517f24661b0a00000000000000000000000000000000000000000000000000000000815260040160405180910390fd5b8060045f6101000a81548173ffffffffffffffffffffffffffffffffffffffff021916908373ffffffffffffffffffffffffffffffffffffffff1602179055507f8320f616f21b1990babcbe80e84448b3a81b3805dd2b1aa27fb114e990c0601c81604051610d449190612618565b60405180910390a150565b610d61610d5a610fac565b83836112ac565b5050565b60045f9054906101000a900473ffffffffffffffffffffffffffffffffffffffff1681565b5f60015f8473ffffffffffffffffffffffffffffffffffffffff1673ffffffffffffffffffffffffffffffffffffffff1681526020019081526020015f205f8373ffffffffffffffffffffffffffffffffffffffff1673ffffffffffffffffffffffffffffffffffffffff1681526020019081526020015f205f9054906101000a900460ff16905092915050565b5f610e21610fac565b90508073ffffffffffffffffffffffffffffffffffffffff168673ffffffffffffffffffffffffffffffffffffffff1614158015610e665750610e648682610d8a565b155b15610eaa5780866040517fe237d922000000000000000000000000000000000000000000000000000000008152600401610ea192919061278a565b60405180910390fd5b610eb78686868686611415565b505050505050565b610ec7611162565b5f73ffffffffffffffffffffffffffffffffffffffff168173ffffffffffffffffffffffffffffffffffffffff1603610f37575f6040517f1e4fbdf7000000000000000000000000000000000000000000000000000000008152600401610f2e91906124d6565b60405180910390fd5b610f40816111e9565b50565b5f7f01ffc9a7000000000000000000000000000000000000000000000000000000007bffffffffffffffffffffffffffffffffffffffffffffffffffffffff1916827bffffffffffffffffffffffffffffffffffffffffffffffffffffffff1916149050919050565b5f33905090565b5f73ffffffffffffffffffffffffffffffffffffffff168473ffffffffffffffffffffffffffffffffffffffff1603611023575f6040517f57f447ce00000000000000000000000000000000000000000000000000000000815260040161101a91906124d6565b60405180910390fd5b5f73ffffffffffffffffffffffffffffffffffffffff168573ffffffffffffffffffffffffffffffffffffffff1603611093575f6040517f01a8351400000000000000000000000000000000000000000000000000000000815260040161108a91906124d6565b60405180910390fd5b6110a0858585858561151b565b5050505050565b5f73ffffffffffffffffffffffffffffffffffffffff168473ffffffffffffffffffffffffffffffffffffffff1603611117575f6040517f57f447ce00000000000000000000000000000000000000000000000000000000815260040161110e91906124d6565b60405180910390fd5b5f5f61112385856115c7565b915091506111345f8784848761151b565b505050505050565b5f60208202602084010151905092915050565b5f60208202602084010151905092915050565b61116a610fac565b73ffffffffffffffffffffffffffffffffffffffff16611188610c40565b73ffffffffffffffffffffffffffffffffffffffff16146111e7576111ab610fac565b6040517f118cdaa70000000000000000000000000000000000000000000000000000000081526004016111de91906124d6565b60405180910390fd5b565b5f60035f9054906101000a900473ffffffffffffffffffffffffffffffffffffffff1690508160035f6101000a81548173ffffffffffffffffffffffffffffffffffffffff021916908373ffffffffffffffffffffffffffffffffffffffff1602179055508173ffffffffffffffffffffffffffffffffffffffff168173ffffffffffffffffffffffffffffffffffffffff167f8be0079c531659141344cd1fd0a4f28419497f9722a3daafe3b4186f6b6457e060405160405180910390a35050565b5f73ffffffffffffffffffffffffffffffffffffffff168273ffffffffffffffffffffffffffffffffffffffff160361131c575f6040517fced3e10000000000000000000000000000000000000000000000000000000000815260040161131391906124d6565b60405180910390fd5b8060015f8573ffffffffffffffffffffffffffffffffffffffff1673ffffffffffffffffffffffffffffffffffffffff1681526020019081526020015f205f8473ffffffffffffffffffffffffffffffffffffffff1673ffffffffffffffffffffffffffffffffffffffff1681526020019081526020015f205f6101000a81548160ff0219169083151502179055508173ffffffffffffffffffffffffffffffffffffffff168373ffffffffffffffffffffffffffffffffffffffff167f17307eab39ab6107e8899845ad3d59bd9653f200f220920489ca2b5937696c31836040516114089190611e86565b60405180910390a3505050565b5f73ffffffffffffffffffffffffffffffffffffffff168473ffffffffffffffffffffffffffffffffffffffff1603611485575f6040517f57f447ce00000000000000000000000000000000000000000000000000000000815260040161147c91906124d6565b60405180910390fd5b5f73ffffffffffffffffffffffffffffffffffffffff168573ffffffffffffffffffffffffffffffffffffffff16036114f5575f6040517f01a835140000000000000000000000000000000000000000000000000000000081526004016114ec91906124d6565b60405180910390fd5b5f5f61150185856115c7565b91509150611512878784848761151b565b50505050505050565b611527858585856115f7565b5f73ffffffffffffffffffffffffffffffffffffffff168473ffffffffffffffffffffffffffffffffffffffff16146115c0575f611563610fac565b905060018451036115af575f6115825f8661114f90919063ffffffff16565b90505f6115985f8661114f90919063ffffffff16565b90506115a883898985858961198a565b50506115be565b6115bd818787878787611b39565b5b505b5050505050565b60608060405191506001825283602083015260408201905060018152826020820152604081016040529250929050565b805182511461164157815181516040517f5b059991000000000000000000000000000000000000000000000000000000008152600401611638929190612982565b60405180910390fd5b5f61164a610fac565b90505f5f90505b8351811015611849575f61166e828661114f90919063ffffffff16565b90505f611684838661114f90919063ffffffff16565b90505f73ffffffffffffffffffffffffffffffffffffffff168873ffffffffffffffffffffffffffffffffffffffff16146117a7575f5f5f8481526020019081526020015f205f8a73ffffffffffffffffffffffffffffffffffffffff1673ffffffffffffffffffffffffffffffffffffffff1681526020019081526020015f205490508181101561175357888183856040517f03dee4c500000000000000000000000000000000000000000000000000000000815260040161174a9493929190612aab565b60405180910390fd5b8181035f5f8581526020019081526020015f205f8b73ffffffffffffffffffffffffffffffffffffffff1673ffffffffffffffffffffffffffffffffffffffff1681526020019081526020015f2081905550505b5f73ffffffffffffffffffffffffffffffffffffffff168773ffffffffffffffffffffffffffffffffffffffff161461183c57805f5f8481526020019081526020015f205f8973ffffffffffffffffffffffffffffffffffffffff1673ffffffffffffffffffffffffffffffffffffffff1681526020019081526020015f205f82825461183491906129d6565b925050819055505b5050806001019050611651565b506001835103611904575f6118675f8561114f90919063ffffffff16565b90505f61187d5f8561114f90919063ffffffff16565b90508573ffffffffffffffffffffffffffffffffffffffff168773ffffffffffffffffffffffffffffffffffffffff168473ffffffffffffffffffffffffffffffffffffffff167fc3d58168c5ae7397731d063d5bbf3d657854427343f4c083240f7aacaa2d0f6285856040516118f5929190612982565b60405180910390a45050611983565b8373ffffffffffffffffffffffffffffffffffffffff168573ffffffffffffffffffffffffffffffffffffffff168273ffffffffffffffffffffffffffffffffffffffff167f4a39dc06d4c0dbc64b70af90fd698a233a518aa5d07e595d983b8c0526c8f7fb868660405161197a929190612aee565b60405180910390a45b5050505050565b5f8473ffffffffffffffffffffffffffffffffffffffff163b1115611b31578373ffffffffffffffffffffffffffffffffffffffff1663f23a6e6187878686866040518663ffffffff1660e01b81526004016119ea959493929190612b23565b6020604051808303815f875af1925050508015611a2557506040513d601f19601f82011682018060405250810190611a229190612b8f565b60015b611aa6573d805f8114611a53576040519150601f19603f3d011682016040523d82523d5f602084013e611a58565b606091505b505f815103611a9e57846040517f57f447ce000000000000000000000000000000000000000000000000000000008152600401611a9591906124d6565b60405180910390fd5b805160208201fd5b63f23a6e6160e01b7bffffffffffffffffffffffffffffffffffffffffffffffffffffffff1916817bffffffffffffffffffffffffffffffffffffffffffffffffffffffff191614611b2f57846040517f57f447ce000000000000000000000000000000000000000000000000000000008152600401611b2691906124d6565b60405180910390fd5b505b505050505050565b5f8473ffffffffffffffffffffffffffffffffffffffff163b1115611ce0578373ffffffffffffffffffffffffffffffffffffffff1663bc197c8187878686866040518663ffffffff1660e01b8152600401611b99959493929190612bba565b6020604051808303815f875af1925050508015611bd457506040513d601f19601f82011682018060405250810190611bd19190612b8f565b60015b611c55573d805f8114611c02576040519150601f19603f3d011682016040523d82523d5f602084013e611c07565b606091505b505f815103611c4d57846040517f57f447ce000000000000000000000000000000000000000000000000000000008152600401611c4491906124d6565b60405180910390fd5b805160208201fd5b63bc197c8160e01b7bffffffffffffffffffffffffffffffffffffffffffffffffffffffff1916817bffffffffffffffffffffffffffffffffffffffffffffffffffffffff191614611cde57846040517f57f447ce000000000000000000000000000000000000000000000000000000008152600401611cd591906124d6565b60405180910390fd5b505b505050505050565b5f604051905090565b5f5ffd5b5f5ffd5b5f73ffffffffffffffffffffffffffffffffffffffff82169050919050565b5f611d2282611cf9565b9050919050565b611d3281611d18565b8114611d3c575f5ffd5b50565b5f81359050611d4d81611d29565b92915050565b5f819050919050565b611d6581611d53565b8114611d6f575f5ffd5b50565b5f81359050611d8081611d5c565b92915050565b5f5f60408385031215611d9c57611d9b611cf1565b5b5f611da985828601611d3f565b9250506020611dba85828601611d72565b9150509250929050565b611dcd81611d53565b82525050565b5f602082019050611de65f830184611dc4565b92915050565b5f7fffffffff0000000000000000000000000000000000000000000000000000000082169050919050565b611e2081611dec565b8114611e2a575f5ffd5b50565b5f81359050611e3b81611e17565b92915050565b5f60208284031215611e5657611e55611cf1565b5b5f611e6384828501611e2d565b91505092915050565b5f8115159050919050565b611e8081611e6c565b82525050565b5f602082019050611e995f830184611e77565b92915050565b5f60208284031215611eb457611eb3611cf1565b5b5f611ec184828501611d72565b91505092915050565b5f81519050919050565b5f82825260208201905092915050565b8281835e5f83830152505050565b5f601f19601f8301169050919050565b5f611f0c82611eca565b611f168185611ed4565b9350611f26818560208601611ee4565b611f2f81611ef2565b840191505092915050565b5f6020820190508181035f830152611f528184611f02565b905092915050565b5f5ffd5b7f4e487b71000000000000000000000000000000000000000000000000000000005f52604160045260245ffd5b611f9482611ef2565b810181811067ffffffffffffffff82111715611fb357611fb2611f5e565b5b80604052505050565b5f611fc5611ce8565b9050611fd18282611f8b565b919050565b5f67ffffffffffffffff821115611ff057611fef611f5e565b5b602082029050602081019050919050565b5f5ffd5b5f61201761201284611fd6565b611fbc565b9050808382526020820190506020840283018581111561203a57612039612001565b5b835b81811015612063578061204f8882611d72565b84526020840193505060208101905061203c565b5050509392505050565b5f82601f83011261208157612080611f5a565b5b8135612091848260208601612005565b91505092915050565b5f5ffd5b5f67ffffffffffffffff8211156120b8576120b7611f5e565b5b6120c182611ef2565b9050602081019050919050565b828183375f83830152505050565b5f6120ee6120e98461209e565b611fbc565b90508281526020810184848401111561210a5761210961209a565b5b6121158482856120ce565b509392505050565b5f82601f83011261213157612130611f5a565b5b81356121418482602086016120dc565b91505092915050565b5f5f5f5f5f60a0868803121561216357612162611cf1565b5b5f61217088828901611d3f565b955050602061218188828901611d3f565b945050604086013567ffffffffffffffff8111156121a2576121a1611cf5565b5b6121ae8882890161206d565b935050606086013567ffffffffffffffff8111156121cf576121ce611cf5565b5b6121db8882890161206d565b925050608086013567ffffffffffffffff8111156121fc576121fb611cf5565b5b6122088882890161211d565b9150509295509295909350565b5f6020828403121561222a57612229611cf1565b5b5f82013567ffffffffffffffff81111561224757612246611cf5565b5b6122538482850161211d565b91505092915050565b5f67ffffffffffffffff82111561227657612275611f5e565b5b602082029050602081019050919050565b5f6122996122948461225c565b611fbc565b905080838252602082019050602084028301858111156122bc576122bb612001565b5b835b818110156122e557806122d18882611d3f565b8452602084019350506020810190506122be565b5050509392505050565b5f82601f83011261230357612302611f5a565b5b8135612313848260208601612287565b91505092915050565b5f5f6040838503121561233257612331611cf1565b5b5f83013567ffffffffffffffff81111561234f5761234e611cf5565b5b61235b858286016122ef565b925050602083013567ffffffffffffffff81111561237c5761237b611cf5565b5b6123888582860161206d565b9150509250929050565b5f81519050919050565b5f82825260208201905092915050565b5f819050602082019050919050565b6123c481611d53565b82525050565b5f6123d583836123bb565b60208301905092915050565b5f602082019050919050565b5f6123f782612392565b612401818561239c565b935061240c836123ac565b805f5b8381101561243c57815161242388826123ca565b975061242e836123e1565b92505060018101905061240f565b5085935050505092915050565b5f6020820190508181035f83015261246181846123ed565b905092915050565b5f819050919050565b61247b81612469565b8114612485575f5ffd5b50565b5f8135905061249681612472565b92915050565b5f602082840312156124b1576124b0611cf1565b5b5f6124be84828501612488565b91505092915050565b6124d081611d18565b82525050565b5f6020820190506124e95f8301846124c7565b92915050565b5f6124f982611d18565b9050919050565b612509816124ef565b8114612513575f5ffd5b50565b5f8135905061252481612500565b92915050565b5f6020828403121561253f5761253e611cf1565b5b5f61254c84828501612516565b91505092915050565b61255e81611e6c565b8114612568575f5ffd5b50565b5f8135905061257981612555565b92915050565b5f5f6040838503121561259557612594611cf1565b5b5f6125a285828601611d3f565b92505060206125b38582860161256b565b9150509250929050565b5f819050919050565b5f6125e06125db6125d684611cf9565b6125bd565b611cf9565b9050919050565b5f6125f1826125c6565b9050919050565b5f612602826125e7565b9050919050565b612612816125f8565b82525050565b5f60208201905061262b5f830184612609565b92915050565b5f5f6040838503121561264757612646611cf1565b5b5f61265485828601611d3f565b925050602061266585828601611d3f565b9150509250929050565b5f5f5f5f5f60a0868803121561268857612687611cf1565b5b5f61269588828901611d3f565b95505060206126a688828901611d3f565b94505060406126b788828901611d72565b93505060606126c888828901611d72565b925050608086013567ffffffffffffffff8111156126e9576126e8611cf5565b5b6126f58882890161211d565b9150509295509295909350565b5f6020828403121561271757612716611cf1565b5b5f61272484828501611d3f565b91505092915050565b7f4e487b71000000000000000000000000000000000000000000000000000000005f52602260045260245ffd5b5f600282049050600182168061277157607f821691505b6020821081036127845761278361272d565b5b50919050565b5f60408201905061279d5f8301856124c7565b6127aa60208301846124c7565b9392505050565b5f6040820190506127c45f830185611dc4565b6127d160208301846124c7565b9392505050565b7f4e487b71000000000000000000000000000000000000000000000000000000005f52603260045260245ffd5b5f81519050919050565b5f82825260208201905092915050565b5f61282982612805565b612833818561280f565b9350612843818560208601611ee4565b61284c81611ef2565b840191505092915050565b5f81519050919050565b5f82825260208201905092915050565b5f819050602082019050919050565b61288981612469565b82525050565b5f61289a8383612880565b60208301905092915050565b5f602082019050919050565b5f6128bc82612857565b6128c68185612861565b93506128d183612871565b805f5b838110156129015781516128e8888261288f565b97506128f3836128a6565b9250506001810190506128d4565b5085935050505092915050565b5f6040820190508181035f830152612926818561281f565b9050818103602083015261293a81846128b2565b90509392505050565b5f8151905061295181612555565b92915050565b5f6020828403121561296c5761296b611cf1565b5b5f61297984828501612943565b91505092915050565b5f6040820190506129955f830185611dc4565b6129a26020830184611dc4565b9392505050565b7f4e487b71000000000000000000000000000000000000000000000000000000005f52601160045260245ffd5b5f6129e082611d53565b91506129eb83611d53565b9250828201905080821115612a0357612a026129a9565b5b92915050565b5f612a1382611d53565b9150612a1e83611d53565b9250828203905081811115612a3657612a356129a9565b5b92915050565b5f612a4682611d53565b91507fffffffffffffffffffffffffffffffffffffffffffffffffffffffffffffffff8203612a7857612a776129a9565b5b600182019050919050565b612a8c81612469565b82525050565b5f602082019050612aa55f830184612a83565b92915050565b5f608082019050612abe5f8301876124c7565b612acb6020830186611dc4565b612ad86040830185611dc4565b612ae56060830184611dc4565b95945050505050565b5f6040820190508181035f830152612b0681856123ed565b90508181036020830152612b1a81846123ed565b90509392505050565b5f60a082019050612b365f8301886124c7565b612b4360208301876124c7565b612b506040830186611dc4565b612b5d6060830185611dc4565b8181036080830152612b6f818461281f565b90509695505050505050565b5f81519050612b8981611e17565b92915050565b5f60208284031215612ba457612ba3611cf1565b5b5f612bb184828501612b7b565b91505092915050565b5f60a082019050612bcd5f8301886124c7565b612bda60208301876124c7565b8181036040830152612bec81866123ed565b90508181036060830152612c0081856123ed565b90508181036080830152612c14818461281f565b9050969550505050505056fea2646970667358221220021fcc3bdc68a15a5acf9bb6d230a1d536c7cafdd2bdbb041bb701f5795c2b8e64736f6c634300081e0033697066733a2f2f62616679626569637166633469706b6c653334746771763367683767636377686d7232327164673770366b366f786f6e3235356d6e7762366373692f7b69647d2e6a736f6e","linkReferences":{}},"methodIdentifiers":{"balanceOf(address,uint256)":"00fdd58e","balanceOfBatch(address[],uint256[])":"4e1273f4","isApprovedForAll(address,address)":"e985e9c5","makeGuess(bytes)":"3dc09e05","newRound(bytes32)":"7d1ca52c","owner()":"8da5cb5b","renounceOwnership()":"715018a6","s_verifier()":"da730836","safeBatchTransferFrom(address,address,uint256[],uint256[],bytes)":"2eb2c2d6","safeTransferFrom(address,address,uint256,uint256,bytes)":"f242432a","setApprovalForAll(address,bool)":"a22cb465","supportsInterface(bytes4)":"01ffc9a7","transferOwnership(address)":"f2fde38b","updateVerifier(address)":"97fc007c","uri(uint256)":"0e89341c"},"id":36}